{
  "contractName": "ApplicationContract",
  "abi": [
    {
      "inputs": [
        {
          "internalType": "string",
          "name": "",
          "type": "string"
        }
      ],
      "name": "applications",
      "outputs": [
        {
          "internalType": "string",
          "name": "id",
          "type": "string"
        },
        {
          "internalType": "string",
          "name": "subject",
          "type": "string"
        },
        {
          "internalType": "string",
          "name": "description",
          "type": "string"
        },
        {
          "internalType": "string",
          "name": "file",
          "type": "string"
        },
        {
          "internalType": "address",
          "name": "applierAddress",
          "type": "address"
        },
        {
          "internalType": "uint256",
          "name": "votes",
          "type": "uint256"
        }
      ],
      "stateMutability": "view",
      "type": "function",
      "constant": true
    },
    {
      "inputs": [
        {
          "internalType": "address",
          "name": "",
          "type": "address"
        },
        {
          "internalType": "uint256",
          "name": "",
          "type": "uint256"
        }
      ],
      "name": "applicationsMadeByAddress",
      "outputs": [
        {
          "internalType": "string",
          "name": "",
          "type": "string"
        }
      ],
      "stateMutability": "view",
      "type": "function",
      "constant": true
    },
    {
      "inputs": [
        {
          "internalType": "address",
          "name": "",
          "type": "address"
        }
      ],
      "name": "rewardBank",
      "outputs": [
        {
          "internalType": "uint256",
          "name": "",
          "type": "uint256"
        }
      ],
      "stateMutability": "view",
      "type": "function",
      "constant": true
    },
    {
      "inputs": [
        {
          "internalType": "string",
          "name": "id",
          "type": "string"
        },
        {
          "internalType": "string",
          "name": "subject",
          "type": "string"
        },
        {
          "internalType": "string",
          "name": "description",
          "type": "string"
        },
        {
          "internalType": "string",
          "name": "file",
          "type": "string"
        }
      ],
      "name": "create",
      "outputs": [],
      "stateMutability": "nonpayable",
      "type": "function"
    },
    {
      "inputs": [
        {
          "internalType": "string",
          "name": "id",
          "type": "string"
        }
      ],
      "name": "getApplication",
      "outputs": [
        {
          "components": [
            {
              "internalType": "string",
              "name": "id",
              "type": "string"
            },
            {
              "internalType": "string",
              "name": "subject",
              "type": "string"
            },
            {
              "internalType": "string",
              "name": "description",
              "type": "string"
            },
            {
              "internalType": "string",
              "name": "file",
              "type": "string"
            },
            {
              "internalType": "address",
              "name": "applierAddress",
              "type": "address"
            },
            {
              "internalType": "uint256",
              "name": "votes",
              "type": "uint256"
            }
          ],
          "internalType": "struct ApplicationContract.Application",
          "name": "",
          "type": "tuple"
        }
      ],
      "stateMutability": "view",
      "type": "function",
      "constant": true
    },
    {
      "inputs": [],
      "name": "getApplicationsMadeByAddress",
      "outputs": [
        {
          "internalType": "string[]",
          "name": "",
          "type": "string[]"
        }
      ],
      "stateMutability": "view",
      "type": "function",
      "constant": true
    },
    {
      "inputs": [],
      "name": "getAllApplicationsID",
      "outputs": [
        {
          "internalType": "string[]",
          "name": "",
          "type": "string[]"
        }
      ],
      "stateMutability": "view",
      "type": "function",
      "constant": true
    },
    {
      "inputs": [
        {
          "internalType": "string",
          "name": "id",
          "type": "string"
        },
        {
          "internalType": "uint256",
          "name": "amount",
          "type": "uint256"
        }
      ],
      "name": "addUpvote",
      "outputs": [],
      "stateMutability": "payable",
      "type": "function",
      "payable": true
    },
    {
      "inputs": [],
      "name": "getBalance",
      "outputs": [
        {
          "internalType": "uint256",
          "name": "",
          "type": "uint256"
        }
      ],
      "stateMutability": "view",
      "type": "function",
      "constant": true
    },
    {
      "inputs": [],
      "name": "withdraw",
      "outputs": [],
      "stateMutability": "payable",
      "type": "function",
      "payable": true
    },
    {
      "inputs": [],
      "name": "getID",
      "outputs": [
        {
          "internalType": "address",
          "name": "",
          "type": "address"
        }
      ],
      "stateMutability": "view",
      "type": "function",
      "constant": true
    }
  ],
  "bytecode": "0x608060405234801561001057600080fd5b50611d94806100206000396000f3fe60806040526004361061009c5760003560e01c806346f6df731161006457806346f6df731461016e57806378ff6ee31461018a578063ab9dbd07146101b3578063bbc1d757146101de578063e6f5291b1461021b578063fcdb378b146102585761009c565b806312065fe0146100a1578063185f4882146100cc5780632ba610f51461010e5780632dc989de146101395780633ccfd60b14610164575b600080fd5b3480156100ad57600080fd5b506100b6610295565b6040516100c3919061128e565b60405180910390f35b3480156100d857600080fd5b506100f360048036038101906100ee9190611403565b6102dc565b6040516101059695949392919061150c565b60405180910390f35b34801561011a57600080fd5b5061012361056e565b6040516101309190611695565b60405180910390f35b34801561014557600080fd5b5061014e610647565b60405161015b9190611695565b60405180910390f35b61016c61075d565b005b610188600480360381019061018391906116e3565b610830565b005b34801561019657600080fd5b506101b160048036038101906101ac919061173f565b610c88565b005b3480156101bf57600080fd5b506101c8610e70565b6040516101d59190611816565b60405180910390f35b3480156101ea57600080fd5b506102056004803603810190610200919061185d565b610e78565b604051610212919061128e565b60405180910390f35b34801561022757600080fd5b50610242600480360381019061023d9190611403565b610e90565b60405161024f9190611946565b60405180910390f35b34801561026457600080fd5b5061027f600480360381019061027a9190611968565b611170565b60405161028c91906119a8565b60405180910390f35b6000600260003373ffffffffffffffffffffffffffffffffffffffff1673ffffffffffffffffffffffffffffffffffffffff16815260200190815260200160002054905090565b600081805160208101820180518482526020830160208501208183528095505050505050600091509050806000018054610315906119f9565b80601f0160208091040260200160405190810160405280929190818152602001828054610341906119f9565b801561038e5780601f106103635761010080835404028352916020019161038e565b820191906000526020600020905b81548152906001019060200180831161037157829003601f168201915b5050505050908060010180546103a3906119f9565b80601f01602080910402602001604051908101604052809291908181526020018280546103cf906119f9565b801561041c5780601f106103f15761010080835404028352916020019161041c565b820191906000526020600020905b8154815290600101906020018083116103ff57829003601f168201915b505050505090806002018054610431906119f9565b80601f016020809104026020016040519081016040528092919081815260200182805461045d906119f9565b80156104aa5780601f1061047f576101008083540402835291602001916104aa565b820191906000526020600020905b81548152906001019060200180831161048d57829003601f168201915b5050505050908060030180546104bf906119f9565b80601f01602080910402602001604051908101604052809291908181526020018280546104eb906119f9565b80156105385780601f1061050d57610100808354040283529160200191610538565b820191906000526020600020905b81548152906001019060200180831161051b57829003601f168201915b5050505050908060040160009054906101000a900473ffffffffffffffffffffffffffffffffffffffff16908060050154905086565b60606003805480602002602001604051908101604052809291908181526020016000905b8282101561063e5783829060005260206000200180546105b1906119f9565b80601f01602080910402602001604051908101604052809291908181526020018280546105dd906119f9565b801561062a5780601f106105ff5761010080835404028352916020019161062a565b820191906000526020600020905b81548152906001019060200180831161060d57829003601f168201915b505050505081526020019060010190610592565b50505050905090565b6060600160003373ffffffffffffffffffffffffffffffffffffffff1673ffffffffffffffffffffffffffffffffffffffff168152602001908152602001600020805480602002602001604051908101604052809291908181526020016000905b828210156107545783829060005260206000200180546106c7906119f9565b80601f01602080910402602001604051908101604052809291908181526020018280546106f3906119f9565b80156107405780601f1061071557610100808354040283529160200191610740565b820191906000526020600020905b81548152906001019060200180831161072357829003601f168201915b5050505050815260200190600101906106a8565b50505050905090565b60003390508073ffffffffffffffffffffffffffffffffffffffff166108fc600260003373ffffffffffffffffffffffffffffffffffffffff1673ffffffffffffffffffffffffffffffffffffffff168152602001908152602001600020549081150290604051600060405180830381858888f193505050501580156107e7573d6000803e3d6000fd5b506000600260003373ffffffffffffffffffffffffffffffffffffffff1673ffffffffffffffffffffffffffffffffffffffff1681526020019081526020016000208190555050565b806002600080856040516108449190611a66565b908152602001604051809103902060040160009054906101000a900473ffffffffffffffffffffffffffffffffffffffff1673ffffffffffffffffffffffffffffffffffffffff1673ffffffffffffffffffffffffffffffffffffffff16815260200190815260200160002060008282546108bf9190611aac565b92505081905550600080836040516108d79190611a66565b90815260200160405180910390206040518060c0016040529081600082018054610900906119f9565b80601f016020809104026020016040519081016040528092919081815260200182805461092c906119f9565b80156109795780601f1061094e57610100808354040283529160200191610979565b820191906000526020600020905b81548152906001019060200180831161095c57829003601f168201915b50505050508152602001600182018054610992906119f9565b80601f01602080910402602001604051908101604052809291908181526020018280546109be906119f9565b8015610a0b5780601f106109e057610100808354040283529160200191610a0b565b820191906000526020600020905b8154815290600101906020018083116109ee57829003601f168201915b50505050508152602001600282018054610a24906119f9565b80601f0160208091040260200160405190810160405280929190818152602001828054610a50906119f9565b8015610a9d5780601f10610a7257610100808354040283529160200191610a9d565b820191906000526020600020905b815481529060010190602001808311610a8057829003601f168201915b50505050508152602001600382018054610ab6906119f9565b80601f0160208091040260200160405190810160405280929190818152602001828054610ae2906119f9565b8015610b2f5780601f10610b0457610100808354040283529160200191610b2f565b820191906000526020600020905b815481529060010190602001808311610b1257829003601f168201915b505050505081526020016004820160009054906101000a900473ffffffffffffffffffffffffffffffffffffffff1673ffffffffffffffffffffffffffffffffffffffff1673ffffffffffffffffffffffffffffffffffffffff168152602001600582015481525050905060018160a001818151610bad9190611aac565b915081815250508060008260000151604051610bc99190611a66565b90815260200160405180910390206000820151816000019081610bec9190611c8c565b506020820151816001019081610c029190611c8c565b506040820151816002019081610c189190611c8c565b506060820151816003019081610c2e9190611c8c565b5060808201518160040160006101000a81548173ffffffffffffffffffffffffffffffffffffffff021916908373ffffffffffffffffffffffffffffffffffffffff16021790555060a08201518160050155905050505050565b610c90611229565b84816000018190525083816020018190525082816040018190525033816080019073ffffffffffffffffffffffffffffffffffffffff16908173ffffffffffffffffffffffffffffffffffffffff168152505081816060018190525060008160a001818152505080600086604051610d089190611a66565b90815260200160405180910390206000820151816000019081610d2b9190611c8c565b506020820151816001019081610d419190611c8c565b506040820151816002019081610d579190611c8c565b506060820151816003019081610d6d9190611c8c565b5060808201518160040160006101000a81548173ffffffffffffffffffffffffffffffffffffffff021916908373ffffffffffffffffffffffffffffffffffffffff16021790555060a08201518160050155905050600160003373ffffffffffffffffffffffffffffffffffffffff1673ffffffffffffffffffffffffffffffffffffffff16815260200190815260200160002085908060018154018082558091505060019003906000526020600020016000909190919091509081610e339190611c8c565b50600385908060018154018082558091505060019003906000526020600020016000909190919091509081610e689190611c8c565b505050505050565b600033905090565b60026020528060005260406000206000915090505481565b610e98611229565b600082604051610ea89190611a66565b90815260200160405180910390206040518060c0016040529081600082018054610ed1906119f9565b80601f0160208091040260200160405190810160405280929190818152602001828054610efd906119f9565b8015610f4a5780601f10610f1f57610100808354040283529160200191610f4a565b820191906000526020600020905b815481529060010190602001808311610f2d57829003601f168201915b50505050508152602001600182018054610f63906119f9565b80601f0160208091040260200160405190810160405280929190818152602001828054610f8f906119f9565b8015610fdc5780601f10610fb157610100808354040283529160200191610fdc565b820191906000526020600020905b815481529060010190602001808311610fbf57829003601f168201915b50505050508152602001600282018054610ff5906119f9565b80601f0160208091040260200160405190810160405280929190818152602001828054611021906119f9565b801561106e5780601f106110435761010080835404028352916020019161106e565b820191906000526020600020905b81548152906001019060200180831161105157829003601f168201915b50505050508152602001600382018054611087906119f9565b80601f01602080910402602001604051908101604052809291908181526020018280546110b3906119f9565b80156111005780601f106110d557610100808354040283529160200191611100565b820191906000526020600020905b8154815290600101906020018083116110e357829003601f168201915b505050505081526020016004820160009054906101000a900473ffffffffffffffffffffffffffffffffffffffff1673ffffffffffffffffffffffffffffffffffffffff1673ffffffffffffffffffffffffffffffffffffffff1681526020016005820154815250509050919050565b6001602052816000526040600020818154811061118c57600080fd5b906000526020600020016000915091505080546111a8906119f9565b80601f01602080910402602001604051908101604052809291908181526020018280546111d4906119f9565b80156112215780601f106111f657610100808354040283529160200191611221565b820191906000526020600020905b81548152906001019060200180831161120457829003601f168201915b505050505081565b6040518060c0016040528060608152602001606081526020016060815260200160608152602001600073ffffffffffffffffffffffffffffffffffffffff168152602001600081525090565b6000819050919050565b61128881611275565b82525050565b60006020820190506112a3600083018461127f565b92915050565b6000604051905090565b600080fd5b600080fd5b600080fd5b600080fd5b6000601f19601f8301169050919050565b7f4e487b7100000000000000000000000000000000000000000000000000000000600052604160045260246000fd5b611310826112c7565b810181811067ffffffffffffffff8211171561132f5761132e6112d8565b5b80604052505050565b60006113426112a9565b905061134e8282611307565b919050565b600067ffffffffffffffff82111561136e5761136d6112d8565b5b611377826112c7565b9050602081019050919050565b82818337600083830152505050565b60006113a66113a184611353565b611338565b9050828152602081018484840111156113c2576113c16112c2565b5b6113cd848285611384565b509392505050565b600082601f8301126113ea576113e96112bd565b5b81356113fa848260208601611393565b91505092915050565b600060208284031215611419576114186112b3565b5b600082013567ffffffffffffffff811115611437576114366112b8565b5b611443848285016113d5565b91505092915050565b600081519050919050565b600082825260208201905092915050565b60005b8381101561148657808201518184015260208101905061146b565b60008484015250505050565b600061149d8261144c565b6114a78185611457565b93506114b7818560208601611468565b6114c0816112c7565b840191505092915050565b600073ffffffffffffffffffffffffffffffffffffffff82169050919050565b60006114f6826114cb565b9050919050565b611506816114eb565b82525050565b600060c08201905081810360008301526115268189611492565b9050818103602083015261153a8188611492565b9050818103604083015261154e8187611492565b905081810360608301526115628186611492565b905061157160808301856114fd565b61157e60a083018461127f565b979650505050505050565b600081519050919050565b600082825260208201905092915050565b6000819050602082019050919050565b600082825260208201905092915050565b60006115d18261144c565b6115db81856115b5565b93506115eb818560208601611468565b6115f4816112c7565b840191505092915050565b600061160b83836115c6565b905092915050565b6000602082019050919050565b600061162b82611589565b6116358185611594565b935083602082028501611647856115a5565b8060005b85811015611683578484038952815161166485826115ff565b945061166f83611613565b925060208a0199505060018101905061164b565b50829750879550505050505092915050565b600060208201905081810360008301526116af8184611620565b905092915050565b6116c081611275565b81146116cb57600080fd5b50565b6000813590506116dd816116b7565b92915050565b600080604083850312156116fa576116f96112b3565b5b600083013567ffffffffffffffff811115611718576117176112b8565b5b611724858286016113d5565b9250506020611735858286016116ce565b9150509250929050565b60008060008060808587031215611759576117586112b3565b5b600085013567ffffffffffffffff811115611777576117766112b8565b5b611783878288016113d5565b945050602085013567ffffffffffffffff8111156117a4576117a36112b8565b5b6117b0878288016113d5565b935050604085013567ffffffffffffffff8111156117d1576117d06112b8565b5b6117dd878288016113d5565b925050606085013567ffffffffffffffff8111156117fe576117fd6112b8565b5b61180a878288016113d5565b91505092959194509250565b600060208201905061182b60008301846114fd565b92915050565b61183a816114eb565b811461184557600080fd5b50565b60008135905061185781611831565b92915050565b600060208284031215611873576118726112b3565b5b600061188184828501611848565b91505092915050565b611893816114eb565b82525050565b6118a281611275565b82525050565b600060c08301600083015184820360008601526118c582826115c6565b915050602083015184820360208601526118df82826115c6565b915050604083015184820360408601526118f982826115c6565b9150506060830151848203606086015261191382826115c6565b9150506080830151611928608086018261188a565b5060a083015161193b60a0860182611899565b508091505092915050565b6000602082019050818103600083015261196081846118a8565b905092915050565b6000806040838503121561197f5761197e6112b3565b5b600061198d85828601611848565b925050602061199e858286016116ce565b9150509250929050565b600060208201905081810360008301526119c28184611492565b905092915050565b7f4e487b7100000000000000000000000000000000000000000000000000000000600052602260045260246000fd5b60006002820490506001821680611a1157607f821691505b602082108103611a2457611a236119ca565b5b50919050565b600081905092915050565b6000611a408261144c565b611a4a8185611a2a565b9350611a5a818560208601611468565b80840191505092915050565b6000611a728284611a35565b915081905092915050565b7f4e487b7100000000000000000000000000000000000000000000000000000000600052601160045260246000fd5b6000611ab782611275565b9150611ac283611275565b9250828201905080821115611ada57611ad9611a7d565b5b92915050565b60008190508160005260206000209050919050565b60006020601f8301049050919050565b600082821b905092915050565b600060088302611b427fffffffffffffffffffffffffffffffffffffffffffffffffffffffffffffffff82611b05565b611b4c8683611b05565b95508019841693508086168417925050509392505050565b6000819050919050565b6000611b89611b84611b7f84611275565b611b64565b611275565b9050919050565b6000819050919050565b611ba383611b6e565b611bb7611baf82611b90565b848454611b12565b825550505050565b600090565b611bcc611bbf565b611bd7818484611b9a565b505050565b5b81811015611bfb57611bf0600082611bc4565b600181019050611bdd565b5050565b601f821115611c4057611c1181611ae0565b611c1a84611af5565b81016020851015611c29578190505b611c3d611c3585611af5565b830182611bdc565b50505b505050565b600082821c905092915050565b6000611c6360001984600802611c45565b1980831691505092915050565b6000611c7c8383611c52565b9150826002028217905092915050565b611c958261144c565b67ffffffffffffffff811115611cae57611cad6112d8565b5b611cb882546119f9565b611cc3828285611bff565b600060209050601f831160018114611cf65760008415611ce4578287015190505b611cee8582611c70565b865550611d56565b601f198416611d0486611ae0565b60005b82811015611d2c57848901518255600182019150602085019450602081019050611d07565b86831015611d495784890151611d45601f891682611c52565b8355505b6001600288020188555050505b50505050505056fea264697066735822122035c3a9e99ebf7e5e9bd33e5ae8b9e4ad5bec90d27bb1687b12f53178ca7865f764736f6c63430008110033",
  "immutableReferences": {},
  "source": "// SPDX-License-Identifier: GPL-3.0\r\npragma solidity >=0.8.0 <0.9.0;\r\n\r\ncontract ApplicationContract {\r\n    struct Application {\r\n        string id;\r\n        string subject;\r\n        string description;\r\n        string file;\r\n        address applierAddress;\r\n        uint256 votes;\r\n    }\r\n\r\n    mapping(string => Application) public applications;\r\n    mapping(address => string[]) public applicationsMadeByAddress;\r\n    mapping(address => uint256) public rewardBank;\r\n    string[] allApplications;\r\n\r\n    function create(\r\n        string memory id,\r\n        string memory subject,\r\n        string memory description,\r\n        string memory file\r\n    ) public {\r\n        Application memory a;\r\n        a.id = id;\r\n        a.subject = subject;\r\n        a.description = description;\r\n        a.applierAddress = msg.sender;\r\n        a.file = file;\r\n        a.votes = 0;\r\n\r\n        applications[id] = a;\r\n        applicationsMadeByAddress[msg.sender].push(id);\r\n\r\n        allApplications.push(id);\r\n    }\r\n\r\n\r\n    // function to view appication\r\n    function getApplication(string memory id) public view returns (Application memory) {\r\n        return applications[id];\r\n    }\r\n\r\n    function getApplicationsMadeByAddress() public view returns(string[] memory){\r\n        return applicationsMadeByAddress[msg.sender];\r\n    }\r\n\r\n    function getAllApplicationsID() public view returns(string[] memory){\r\n        return allApplications;\r\n    }\r\n\r\n\r\n    // reward system\r\n    function addUpvote(string memory id, uint256 amount) payable public{\r\n        // require(msg.value == amount);\r\n        // require(amount <= address(msg.sender).balance);\r\n\r\n\r\n        rewardBank[ applications[id].applierAddress ] += amount;\r\n\r\n        Application memory a = applications[id];\r\n        a.votes += 1;\r\n        applications[a.id] = a;\r\n    }\r\n\r\n    function getBalance() public view returns (uint256) {\r\n        return rewardBank[msg.sender];\r\n    }\r\n\r\n    function withdraw() payable public {\r\n        address payable user = payable(msg.sender);\r\n        user.transfer( rewardBank[msg.sender] );\r\n        rewardBank[msg.sender] = 0;\r\n    }\r\n\r\n    // test function to see your own ID\r\n    function getID() public view returns(address){\r\n        return msg.sender;\r\n    }\r\n\r\n}",
  "sourcePath": "D:\\Git\\projects\\spotlight\\report-contract\\contracts\\1_ApplicationContract.sol",
  "compiler": {
    "name": "solc",
    "version": "0.8.17+commit.8df45f5f.Emscripten.clang"
  },
  "schemaVersion": "3.4.13",
  "updatedAt": "2023-05-15T17:42:34.396Z",
  "networkType": "ethereum",
  "devdoc": {
    "kind": "dev",
    "methods": {},
    "version": 1
  },
  "userdoc": {
    "kind": "user",
    "methods": {},
    "version": 1
  }
}